:100000000EC01EC01DC01CC01BC01AC019C018C025
:1000100017C016C03F065B4F666D7D077F6F1124CA
:100020001FBECFE9CDBF10E0A0E6B0E0E6E2F3E00E
:1000300002C005900D92A236B107D9F721D171C146
:10004000DFCF20E031E0482F50E096B392959F70CB
:100050009327692F617070E06417750729F42F5F8B
:100060002A3011F00000F1CF822F0895C09AC19A72
:10007000C89500C0C0980895C198C89500C0C098A0
:10008000C89500C0C19AC89500C0C09A089598E06C
:10009000C198C89500C080FF02C0C09A01C0C09836
:1000A000C19AC89500C08695915091F7C198B898AB
:1000B000C09AC89500C081E0B09902C080E002C03B
:1000C000B89AC098C89500C0C19AC89500C0C19898
:1000D000C89500C0B89A0895CF93811102C0C0E0BE
:1000E00001C0C8E0683008F067E0C62BC09361002B
:1000F000BDDF8C2F8068CBDFCF91BECF26E033E110
:100100004EEA4A95F1F73A95E1F72A95D1F700C002
:1001100008959F92AF92BF92CF92DF92EF92FF929B
:100120000F931F93CF93DF93CDB7DD27C550CDBF7E
:100130005C016B018E010F5F1F4F85E0F80111928A
:100140008A95E9F7BC9AC4982AE139EF3A95F1F714
:100150002A95E1F7BC98C49A80E073DF87FF02C05C
:100160008FEF2DC081E06DDF87FDFACF80E069DF82
:1001700087FDF6CF95E0992E900E88E0E82EF801E5
:100180009081F92EFF0CF08281E05BDF18162CF4D1
:1001900080E057DF91E082300CF490E09F29F80175
:1001A0009083EA94E110EBCF0F5F1F4F9012E5CFE1
:1001B0008B81F50180838981F601808380E0CB5FAC
:1001C000CDBFDF91CF911F910F91FF90EF90DF9006
:1001D000CF90BF90AF909F90089597B3936097BBD7
:1001E00098B39C7F98BB78CF60916100677074CFA3
:1001F000682F67708091610088706ECF1F93CF93D6
:10020000DF931F92CDB7DD27182F69832FDF84E49A
:100210003EDF32DF2BDF812F8370806C38DF698116
:10022000862F35DF0F90DF91CF911F9125CF6A3058
:1002300030F4E62FF0E0EC5EFF4F649101C060E027
:10024000813031F4909160009078692B6093600068
:10025000D5CF90916000882311F0906801C09F77FE
:10026000909360006091600081E0C8CFCF93C0E0C0
:1002700060E08C2FC3DFCF5FC430D1F7CF910895FA
:10028000CF93DF93CDB7DD27C350CDBF37DF65E018
:1002900081E0A3DF60E080E0CADF60E081E0C7DFEB
:1002A00060E082E0C4DF60E083E0C1DF27DFBC986C
:1002B000C49A1AE0BE016F5F7F4FCE01029629DF1C
:1002C00063E682E09BDF69E383E098DF8A81612F48
:1002D0001CD0682F80E09B83AADF9B81692F81E07F
:1002E000A6DF0CDF63E782E089DF64E783E086DF77
:1002F0008981612F0AD0682F80E09B8398DF9B81E2
:10030000692F81E094DFFADED5CF991B79E004C034
:10031000991F961708F0961B881F7A95C9F7809544
:060320000895F894FFCFE0
:02032600FF0FC7
:00000001FF
